:03000000020100FA
:03000300020100F7
:03000B00020100EF
:03001300020100E7
:03001B00020100DF
:03002300020100D7
:03002B00020100CF
:10010000C2AF12012B12033E0A0D474C4F574D4F01
:100110004E3E200075812FC2AFC20012033E2A005E
:10012000C2981202FEFA02031780E97589207588C9
:1001300041758DFD7598501205BC22028D01F302A8
:1001400056020D028D0198028D0200028D0171028E
:100150008D028D028D028D028D028D01B3028D0103
:10016000CE028D028D0192028D01E8028D028D0179
:100170007A1204161206BF020129C0F0C007C0E0BF
:1001800075E0D075F01C120678D0E0D007D0F002F0
:100190000129120711020129C0E0C0F0C0071202B4
:1001A000E885E0F01202E81206E6D007D0F0D0E0D1
:1001B000020129C0E0C0F0C0071202E885E0F01299
:1001C00002E8120723D007D0F0D0E0020129C0E0F6
:1001D000C0F0C00775E0D075F06B7F8012065CD070
:1001E00007D0F0D0E00201291203D98FE012036199
:1001F000020129C0E075E03B1203AAD0E002012908
:10020000C0E075E0431203AAD0E0020129C0E0C0BB
:10021000F0C007C000C00112049275E0D075F07202
:100220001206788FE0A8E075F0731206788FE0A9C7
:10023000E075E0741203AA1203AAD9F8B80002808C
:1002400002D8F175E0771203AAD001D000D007D010
:10025000F0D0E0020129C0E0C0F0C007C0007FD0AC
:1002600075F07778061202E8CF12065CCF05F0D859
:10027000F475F01378061202E8CF12065CCF05F091
:10028000D8F4D000D007D0F0D0E002012912033E0C
:100290000D0A2062616420636F6D6D616E642000E1
:1002A00002012912033E0D0A20626164207061720E
:1002B000616D657465722000020129C0001203346B
:1002C00012038823232323F812033412038828F50A
:1002D0008312033412038823232323F812033412D6
:1002E000038828F582D00022C0F01203341203885C
:1002F000C4F5F012033412038845F0D0F022120343
:1003000034C2E5C3944050031202A3C0E0941B40E2
:10031000031202A3D0E02290013BEA230493C0E041
:10032000EA2393C0E02224D022243022C299F599F6
:100330003099FD223098FDE599547FC29822D083F0
:10034000D082E493B40002800612032CA380F374DD
:100350000173C0E0740A12032C740D12032CD0E058
:1003600022C0E012037012032CEA12032CD0E02208
:10037000FA540F24F650022407243ACAC4540F2416
:10038000F650022407243A22C20024D05017C32476
:10039000F64003240A22C2E5C324F95008C324FA14
:1003A0004003540F22D200020129C0E0C0F0C00770
:1003B000C000C00175F0D0C5F0780379021206784C
:1003C000CF120361CF05F0D9F4D8F0D001D000D01E
:1003D00007D0F0D0E022020000C0E0C0F075E0D00D
:1003E00075F075120678BF71047F018009BF730430
:1003F0007F0180027F00D0F0D0E022C0E0C0F07525
:10040000E01875F000120678BF48047F0180027F73
:1004100000D0F0D0E022C0E0C0F0C00775E0D012FC
:10042000056575F06B7F0012065C12056575F06B53
:100430007F0112065C12056512056575F01A7F03CF
:1004400012065C75F0197F0412065C75F01B12062B
:1004500078CF54E44400CF12065C75F01C12067885
:10046000CF54E74400CF12065C75F01D120678CF1A
:1004700054F04503CF12065C8537F07F2212065CEC
:100480008538F07F0112065C120565D007D0F0D0E8
:10049000E022C0E0C0F0C00775E0D075F06B7F804F
:1004A00012065C12056575F06B7F0112065C75F033
:1004B0006C7F0012065C12056512056575F0387FC9
:1004C0000012065C75F0237F0012065C75F06B7FEE
:1004D0000012065C75F0247F0012065C75F06A7FDE
:1004E0000012065C75F06A7F0C12065C12056575D9
:1004F000F01A7F0112065C75F0197F0012065C7518
:10050000F01B7F0012065C75F01C7F0012065C7504
:10051000F06A7F4012065C75F0237F7812065C1249
:10052000059F75F0237F0012065CD007D0F0D0E065
:1005300022C0E0C0F075E0D075F03B12067875F08F
:100540003C12067875F03D12067875F03E1206787A
:1005500075F03F12067875F040120678D0F0D0E0C2
:100560002222222222C000C001C00278FF79647AD0
:1005700002D8FE78FFD9FA7964DAF6D002D001D039
:100580000022C000C001C00278FF79647A05D8FE5D
:1005900078FFD9FA7964DAF6D002D001D00022C00F
:1005A00000C001C00278FF794F7A02D8FE78FFD9E7
:1005B000FA7964DAF6D002D001D00022D290D2913A
:1005C00022C2911206A2D2901206A2D2911206A2C3
:1005D000C2901206A20012060022D291D2901206F8
:1005E0009BC29012069B0012060022C2911206A224
:1005F000C2901206A2D2911206A2D2901206A22294
:10060000C0E0C0077F08C2911206A2339290120682
:10061000A2D291DFF1C291D2901206A2D29112061B
:10062000A2A290D007D0E022D2911206A2C29012CC
:1006300006A2D29112069B22D2911206A2D2901249
:1006400006A2D29112069B22C0077F08C291D291C6
:10065000A29033DFF7C291D290D00722C0E0C0F061
:10066000C0071205DAC5F0120600CF120600120507
:10067000EBD007D0F0D0E022C0E0C0F01205DAC520
:10068000F0120600C5F044011205C1120648120618
:10069000381205EBAFE0D0F0D0E0221206A212062D
:1006A000A222C0007801D8FED0002275E0A875F023
:1006B0001712065C75F0007F0112065CD28022C022
:1006C000E0C0F0C00775E0A81206AB7FFF75F0131D
:1006D00012065C75F01412065C75F01512065CD0FB
:1006E00007D0F0D0E022C0E0C0F0C007C5F0B413DE
:1006F0000302070250028012B415030207024002EF
:100700008008C5F07FA8CF12065CD007D0F0D0E0FB
:1007100022C0E0C0F075E0A875F01612065CD0F0BB
:10072000D0E022C0E0C0F0C007C5F0B4010302076A
:100730003F50028012B4120302073F40028008C5F6
:10074000F07FA8CF12065CD007D0F0D0E022C0E046
:10075000C0F0C00775E0A875F0007F0012065CD0FD
:1007600007D0F0D0E022C0E0C0F0C00775E0A87567
:10077000F0007F0112065CD007D0F0D0E022C280EA
:0407800022D28022DF
:00000001FF
